{
  "contractName": "HealthcareSystem",
  "abi": [
    {
      "anonymous": false,
      "inputs": [
        {
          "indexed": true,
          "internalType": "address",
          "name": "doctorAddress",
          "type": "address"
        },
        {
          "indexed": false,
          "internalType": "string",
          "name": "username",
          "type": "string"
        }
      ],
      "name": "DoctorRegistered",
      "type": "event"
    },
    {
      "anonymous": false,
      "inputs": [
        {
          "indexed": true,
          "internalType": "address",
          "name": "doctorAddress",
          "type": "address"
        },
        {
          "indexed": false,
          "internalType": "bytes32",
          "name": "resetCode",
          "type": "bytes32"
        }
      ],
      "name": "PasswordResetRequested",
      "type": "event"
    },
    {
      "anonymous": false,
      "inputs": [
        {
          "indexed": true,
          "internalType": "address",
          "name": "doctorAddress",
          "type": "address"
        }
      ],
      "name": "PasswordResetSuccessful",
      "type": "event"
    },
    {
      "inputs": [
        {
          "internalType": "address",
          "name": "",
          "type": "address"
        }
      ],
      "name": "doctors",
      "outputs": [
        {
          "internalType": "string",
          "name": "name",
          "type": "string"
        },
        {
          "internalType": "string",
          "name": "specialization",
          "type": "string"
        },
        {
          "internalType": "string",
          "name": "email",
          "type": "string"
        },
        {
          "internalType": "string",
          "name": "username",
          "type": "string"
        },
        {
          "internalType": "bytes32",
          "name": "passwordHash",
          "type": "bytes32"
        },
        {
          "internalType": "string",
          "name": "doctorId",
          "type": "string"
        },
        {
          "internalType": "string",
          "name": "licenseNumber",
          "type": "string"
        },
        {
          "internalType": "uint256",
          "name": "yearsOfExperience",
          "type": "uint256"
        },
        {
          "internalType": "string",
          "name": "clinicName",
          "type": "string"
        },
        {
          "internalType": "string",
          "name": "contactNumber",
          "type": "string"
        },
        {
          "internalType": "string",
          "name": "addressDetails",
          "type": "string"
        },
        {
          "internalType": "bool",
          "name": "isRegistered",
          "type": "bool"
        }
      ],
      "stateMutability": "view",
      "type": "function",
      "constant": true
    },
    {
      "inputs": [
        {
          "internalType": "uint256",
          "name": "",
          "type": "uint256"
        }
      ],
      "name": "registeredDoctors",
      "outputs": [
        {
          "internalType": "address",
          "name": "",
          "type": "address"
        }
      ],
      "stateMutability": "view",
      "type": "function",
      "constant": true
    },
    {
      "inputs": [
        {
          "internalType": "address",
          "name": "_doctorAddress",
          "type": "address"
        },
        {
          "internalType": "string",
          "name": "_name",
          "type": "string"
        },
        {
          "internalType": "string",
          "name": "_specialization",
          "type": "string"
        },
        {
          "internalType": "string",
          "name": "_email",
          "type": "string"
        },
        {
          "internalType": "string",
          "name": "_username",
          "type": "string"
        },
        {
          "internalType": "string",
          "name": "_doctorId",
          "type": "string"
        },
        {
          "internalType": "string",
          "name": "_licenseNumber",
          "type": "string"
        },
        {
          "internalType": "uint256",
          "name": "_yearsOfExperience",
          "type": "uint256"
        },
        {
          "internalType": "string",
          "name": "_clinicName",
          "type": "string"
        },
        {
          "internalType": "string",
          "name": "_contactNumber",
          "type": "string"
        },
        {
          "internalType": "string",
          "name": "_addressDetails",
          "type": "string"
        }
      ],
      "name": "registerDoctor",
      "outputs": [],
      "stateMutability": "nonpayable",
      "type": "function"
    }
  ],
  "bytecode": "0x608060405234801561001057600080fd5b5061138c806100206000396000f3fe608060405234801561001057600080fd5b50600436106100415760003560e01c806304c42886146100465780639d9a495c14610076578063a9583c2214610092575b600080fd5b610060600480360381019061005b9190610e2f565b6100cd565b60405161006d9190610fd5565b60405180910390f35b610090600480360381019061008b9190610c67565b61010c565b005b6100ac60048036038101906100a79190610c3e565b6105d4565b6040516100c49c9b9a99989796959493929190611012565b60405180910390f35b600081815481106100dd57600080fd5b906000526020600020016000915054906101000a900473ffffffffffffffffffffffffffffffffffffffff1681565b600160008c73ffffffffffffffffffffffffffffffffffffffff1673ffffffffffffffffffffffffffffffffffffffff168152602001908152602001600020600b0160009054906101000a900460ff161561019c576040517f08c379a00000000000000000000000000000000000000000000000000000000081526004016101939061112b565b60405180910390fd5b6003876040516101ac9190610fbe565b908152602001604051809103902060009054906101000a900460ff1615610208576040517f08c379a00000000000000000000000000000000000000000000000000000000081526004016101ff9061110b565b60405180910390fd5b6004866040516102189190610fbe565b908152602001604051809103902060009054906101000a900460ff1615610274576040517f08c379a000000000000000000000000000000000000000000000000000000000815260040161026b9061114b565b60405180910390fd5b6040518061018001604052808b81526020018a81526020018981526020018881526020016000801b815260200187815260200186815260200185815260200184815260200183815260200182815260200160011515815250600160008d73ffffffffffffffffffffffffffffffffffffffff1673ffffffffffffffffffffffffffffffffffffffff1681526020019081526020016000206000820151816000019080519060200190610327929190610b09565b506020820151816001019080519060200190610344929190610b09565b506040820151816002019080519060200190610361929190610b09565b50606082015181600301908051906020019061037e929190610b09565b506080820151816004015560a08201518160050190805190602001906103a5929190610b09565b5060c08201518160060190805190602001906103c2929190610b09565b5060e082015181600701556101008201518160080190805190602001906103ea929190610b09565b50610120820151816009019080519060200190610408929190610b09565b5061014082015181600a019080519060200190610426929190610b09565b5061016082015181600b0160006101000a81548160ff021916908315150217905550905050600160038860405161045d9190610fbe565b908152602001604051809103902060006101000a81548160ff02191690831515021790555060016004876040516104949190610fbe565b908152602001604051809103902060006101000a81548160ff0219169083151502179055508a6002886040516104ca9190610fbe565b908152602001604051809103902060006101000a81548173ffffffffffffffffffffffffffffffffffffffff021916908373ffffffffffffffffffffffffffffffffffffffff16021790555060008b9080600181540180825580915050600190039060005260206000200160009091909190916101000a81548173ffffffffffffffffffffffffffffffffffffffff021916908373ffffffffffffffffffffffffffffffffffffffff1602179055508a73ffffffffffffffffffffffffffffffffffffffff167f20481b8112b5bf4734f45a473c373db9df6a79ce946cdc0e7dbc22b4f7d7f986886040516105bf9190610ff0565b60405180910390a25050505050505050505050565b60016020528060005260406000206000915090508060000180546105f790611287565b80601f016020809104026020016040519081016040528092919081815260200182805461062390611287565b80156106705780601f1061064557610100808354040283529160200191610670565b820191906000526020600020905b81548152906001019060200180831161065357829003601f168201915b50505050509080600101805461068590611287565b80601f01602080910402602001604051908101604052809291908181526020018280546106b190611287565b80156106fe5780601f106106d3576101008083540402835291602001916106fe565b820191906000526020600020905b8154815290600101906020018083116106e157829003601f168201915b50505050509080600201805461071390611287565b80601f016020809104026020016040519081016040528092919081815260200182805461073f90611287565b801561078c5780601f106107615761010080835404028352916020019161078c565b820191906000526020600020905b81548152906001019060200180831161076f57829003601f168201915b5050505050908060030180546107a190611287565b80601f01602080910402602001604051908101604052809291908181526020018280546107cd90611287565b801561081a5780601f106107ef5761010080835404028352916020019161081a565b820191906000526020600020905b8154815290600101906020018083116107fd57829003601f168201915b50505050509080600401549080600501805461083590611287565b80601f016020809104026020016040519081016040528092919081815260200182805461086190611287565b80156108ae5780601f10610883576101008083540402835291602001916108ae565b820191906000526020600020905b81548152906001019060200180831161089157829003601f168201915b5050505050908060060180546108c390611287565b80601f01602080910402602001604051908101604052809291908181526020018280546108ef90611287565b801561093c5780601f106109115761010080835404028352916020019161093c565b820191906000526020600020905b81548152906001019060200180831161091f57829003601f168201915b50505050509080600701549080600801805461095790611287565b80601f016020809104026020016040519081016040528092919081815260200182805461098390611287565b80156109d05780601f106109a5576101008083540402835291602001916109d0565b820191906000526020600020905b8154815290600101906020018083116109b357829003601f168201915b5050505050908060090180546109e590611287565b80601f0160208091040260200160405190810160405280929190818152602001828054610a1190611287565b8015610a5e5780601f10610a3357610100808354040283529160200191610a5e565b820191906000526020600020905b815481529060010190602001808311610a4157829003601f168201915b50505050509080600a018054610a7390611287565b80601f0160208091040260200160405190810160405280929190818152602001828054610a9f90611287565b8015610aec5780601f10610ac157610100808354040283529160200191610aec565b820191906000526020600020905b815481529060010190602001808311610acf57829003601f168201915b50505050509080600b0160009054906101000a900460ff1690508c565b828054610b1590611287565b90600052602060002090601f016020900481019282610b375760008555610b7e565b82601f10610b5057805160ff1916838001178555610b7e565b82800160010185558215610b7e579182015b82811115610b7d578251825591602001919060010190610b62565b5b509050610b8b9190610b8f565b5090565b5b80821115610ba8576000816000905550600101610b90565b5090565b6000610bbf610bba8461119c565b61116b565b905082815260208101848484011115610bd757600080fd5b610be2848285611245565b509392505050565b600081359050610bf981611328565b92915050565b600082601f830112610c1057600080fd5b8135610c20848260208601610bac565b91505092915050565b600081359050610c388161133f565b92915050565b600060208284031215610c5057600080fd5b6000610c5e84828501610bea565b91505092915050565b60008060008060008060008060008060006101608c8e031215610c8957600080fd5b6000610c978e828f01610bea565b9b505060208c013567ffffffffffffffff811115610cb457600080fd5b610cc08e828f01610bff565b9a505060408c013567ffffffffffffffff811115610cdd57600080fd5b610ce98e828f01610bff565b99505060608c013567ffffffffffffffff811115610d0657600080fd5b610d128e828f01610bff565b98505060808c013567ffffffffffffffff811115610d2f57600080fd5b610d3b8e828f01610bff565b97505060a08c013567ffffffffffffffff811115610d5857600080fd5b610d648e828f01610bff565b96505060c08c013567ffffffffffffffff811115610d8157600080fd5b610d8d8e828f01610bff565b95505060e0610d9e8e828f01610c29565b9450506101008c013567ffffffffffffffff811115610dbc57600080fd5b610dc88e828f01610bff565b9350506101208c013567ffffffffffffffff811115610de657600080fd5b610df28e828f01610bff565b9250506101408c013567ffffffffffffffff811115610e1057600080fd5b610e1c8e828f01610bff565b9150509295989b509295989b9093969950565b600060208284031215610e4157600080fd5b6000610e4f84828501610c29565b91505092915050565b610e61816111f3565b82525050565b610e7081611205565b82525050565b610e7f81611211565b82525050565b6000610e90826111cc565b610e9a81856111d7565b9350610eaa818560208601611254565b610eb381611317565b840191505092915050565b6000610ec9826111cc565b610ed381856111e8565b9350610ee3818560208601611254565b80840191505092915050565b6000610efc6016836111d7565b91507f557365726e616d6520616c72656164792074616b656e000000000000000000006000830152602082019050919050565b6000610f3c6019836111d7565b91507f446f63746f7220616c72656164792072656769737465726564000000000000006000830152602082019050919050565b6000610f7c6018836111d7565b91507f446f63746f7220494420616c72656164792065786973747300000000000000006000830152602082019050919050565b610fb88161123b565b82525050565b6000610fca8284610ebe565b915081905092915050565b6000602082019050610fea6000830184610e58565b92915050565b6000602082019050818103600083015261100a8184610e85565b905092915050565b600061018082019050818103600083015261102d818f610e85565b90508181036020830152611041818e610e85565b90508181036040830152611055818d610e85565b90508181036060830152611069818c610e85565b9050611078608083018b610e76565b81810360a083015261108a818a610e85565b905081810360c083015261109e8189610e85565b90506110ad60e0830188610faf565b8181036101008301526110c08187610e85565b90508181036101208301526110d58186610e85565b90508181036101408301526110ea8185610e85565b90506110fa610160830184610e67565b9d9c50505050505050505050505050565b6000602082019050818103600083015261112481610eef565b9050919050565b6000602082019050818103600083015261114481610f2f565b9050919050565b6000602082019050818103600083015261116481610f6f565b9050919050565b6000604051905081810181811067ffffffffffffffff82111715611192576111916112e8565b5b8060405250919050565b600067ffffffffffffffff8211156111b7576111b66112e8565b5b601f19601f8301169050602081019050919050565b600081519050919050565b600082825260208201905092915050565b600081905092915050565b60006111fe8261121b565b9050919050565b60008115159050919050565b6000819050919050565b600073ffffffffffffffffffffffffffffffffffffffff82169050919050565b6000819050919050565b82818337600083830152505050565b60005b83811015611272578082015181840152602081019050611257565b83811115611281576000848401525b50505050565b6000600282049050600182168061129f57607f821691505b602082108114156112b3576112b26112b9565b5b50919050565b7f4e487b7100000000000000000000000000000000000000000000000000000000600052602260045260246000fd5b7f4e487b7100000000000000000000000000000000000000000000000000000000600052604160045260246000fd5b6000601f19601f8301169050919050565b611331816111f3565b811461133c57600080fd5b50565b6113488161123b565b811461135357600080fd5b5056fea26469706673582212204bc6f532541b511ba09ff25dfb70645046e34c2d70553cb8978056c26a6bc78b64736f6c63430008000033",
  "immutableReferences": {},
  "source": "// SPDX-License-Identifier: MIT\r\npragma solidity ^0.8.0;\r\n\r\ncontract HealthcareSystem {\r\n    struct Doctor {\r\n        string name;\r\n        string specialization;\r\n        string email;\r\n        string username;\r\n        bytes32 passwordHash;\r\n        string doctorId; // Unique doctor ID\r\n        string licenseNumber;\r\n        uint256 yearsOfExperience;\r\n        string clinicName;\r\n        string contactNumber;\r\n        string addressDetails;\r\n        bool isRegistered;\r\n    }\r\n\r\n    \r\n\r\n    address[] public registeredDoctors;\r\n\r\n    mapping(address => Doctor) public doctors;\r\n\r\n    mapping(string => address) private usernameToAddress; // Maps username to doctors address\r\n\r\n    mapping(string => bool) private usernameExists;\r\n    mapping(string => bool) private doctorIdExists; // To ensure unique Doctor ID\r\n\r\n    mapping(address => mapping(string => string[])) private doctorAvailability; // Doctor -> (Date -> Time Slots)\r\n    mapping(address => bytes32) private passwordResetCodes; // Stores password reset codes\r\n\r\n\r\n    event DoctorRegistered(address indexed doctorAddress, string username);\r\n    event PasswordResetRequested(address indexed doctorAddress, bytes32 resetCode);\r\n    event PasswordResetSuccessful(address indexed doctorAddress);\r\n\r\n    function registerDoctor(\r\n        address _doctorAddress,\r\n        string memory _name,\r\n        string memory _specialization,\r\n        string memory _email,\r\n        string memory _username,\r\n        string memory _doctorId,\r\n        string memory _licenseNumber,\r\n        uint256 _yearsOfExperience,\r\n        string memory _clinicName,\r\n        string memory _contactNumber,\r\n        string memory _addressDetails\r\n    ) public {\r\n        require(!doctors[_doctorAddress].isRegistered, \"Doctor already registered\");\r\n        require(!usernameExists[_username], \"Username already taken\");\r\n        require(!doctorIdExists[_doctorId], \"Doctor ID already exists\");\r\n\r\n        doctors[_doctorAddress] = Doctor({\r\n            name: _name,\r\n            specialization: _specialization,\r\n            email: _email,\r\n            username: _username,\r\n            passwordHash: 0,\r\n            doctorId: _doctorId,\r\n            licenseNumber: _licenseNumber,\r\n            yearsOfExperience: _yearsOfExperience,\r\n            clinicName: _clinicName,\r\n            contactNumber: _contactNumber,\r\n            addressDetails: _addressDetails,\r\n            isRegistered: true\r\n        });\r\n\r\n        usernameExists[_username] = true;\r\n        doctorIdExists[_doctorId] = true;\r\n        usernameToAddress[_username] = _doctorAddress;\r\n\r\n        registeredDoctors.push(_doctorAddress);\r\n\r\n        emit DoctorRegistered(_doctorAddress, _username);\r\n    }\r\n\r\n}\r\n",
  "sourcePath": "C:\\Users\\Student\\MyNewDApp\\frontend\\healthcaresystem\\contracts\\HealthcareSystem2025-03-17.sol",
  "compiler": {
    "name": "solc",
    "version": "0.8.0+commit.c7dfd78e.Emscripten.clang"
  },
  "schemaVersion": "3.4.16",
  "updatedAt": "2025-03-18T01:49:40.509Z",
  "networkType": "ethereum",
  "devdoc": {
    "kind": "dev",
    "methods": {},
    "version": 1
  },
  "userdoc": {
    "kind": "user",
    "methods": {},
    "version": 1
  }
}