{
  "contractName": "HealthcareSystem",
  "abi": [
    {
      "anonymous": false,
      "inputs": [
        {
          "indexed": true,
          "internalType": "address",
          "name": "doctorAddress",
          "type": "address"
        },
        {
          "indexed": false,
          "internalType": "string",
          "name": "date",
          "type": "string"
        },
        {
          "indexed": false,
          "internalType": "string[]",
          "name": "timeSlots",
          "type": "string[]"
        }
      ],
      "name": "AvailabilitySet",
      "type": "event"
    },
    {
      "anonymous": false,
      "inputs": [
        {
          "indexed": true,
          "internalType": "address",
          "name": "doctorAddress",
          "type": "address"
        },
        {
          "indexed": false,
          "internalType": "string",
          "name": "username",
          "type": "string"
        }
      ],
      "name": "DoctorRegistered",
      "type": "event"
    },
    {
      "anonymous": false,
      "inputs": [
        {
          "indexed": true,
          "internalType": "address",
          "name": "doctorAddress",
          "type": "address"
        },
        {
          "indexed": false,
          "internalType": "bytes32",
          "name": "resetCode",
          "type": "bytes32"
        }
      ],
      "name": "PasswordResetRequested",
      "type": "event"
    },
    {
      "anonymous": false,
      "inputs": [
        {
          "indexed": true,
          "internalType": "address",
          "name": "doctorAddress",
          "type": "address"
        }
      ],
      "name": "PasswordResetSuccessful",
      "type": "event"
    },
    {
      "anonymous": false,
      "inputs": [
        {
          "indexed": true,
          "internalType": "address",
          "name": "doctor",
          "type": "address"
        },
        {
          "indexed": false,
          "internalType": "string",
          "name": "date",
          "type": "string"
        },
        {
          "indexed": false,
          "internalType": "string",
          "name": "time",
          "type": "string"
        }
      ],
      "name": "TimeSlotRemoved",
      "type": "event"
    },
    {
      "inputs": [
        {
          "internalType": "address",
          "name": "",
          "type": "address"
        }
      ],
      "name": "doctors",
      "outputs": [
        {
          "internalType": "string",
          "name": "name",
          "type": "string"
        },
        {
          "internalType": "string",
          "name": "specialization",
          "type": "string"
        },
        {
          "internalType": "string",
          "name": "email",
          "type": "string"
        },
        {
          "internalType": "string",
          "name": "username",
          "type": "string"
        },
        {
          "internalType": "bytes32",
          "name": "passwordHash",
          "type": "bytes32"
        },
        {
          "internalType": "string",
          "name": "doctorId",
          "type": "string"
        },
        {
          "internalType": "string",
          "name": "licenseNumber",
          "type": "string"
        },
        {
          "internalType": "uint256",
          "name": "yearsOfExperience",
          "type": "uint256"
        },
        {
          "internalType": "string",
          "name": "clinicName",
          "type": "string"
        },
        {
          "internalType": "string",
          "name": "contactNumber",
          "type": "string"
        },
        {
          "internalType": "string",
          "name": "addressDetails",
          "type": "string"
        },
        {
          "internalType": "bool",
          "name": "isRegistered",
          "type": "bool"
        }
      ],
      "stateMutability": "view",
      "type": "function",
      "constant": true
    },
    {
      "inputs": [
        {
          "internalType": "uint256",
          "name": "",
          "type": "uint256"
        }
      ],
      "name": "registeredDoctors",
      "outputs": [
        {
          "internalType": "address",
          "name": "",
          "type": "address"
        }
      ],
      "stateMutability": "view",
      "type": "function",
      "constant": true
    },
    {
      "inputs": [
        {
          "internalType": "address",
          "name": "_doctorAddress",
          "type": "address"
        },
        {
          "internalType": "string",
          "name": "_name",
          "type": "string"
        },
        {
          "internalType": "string",
          "name": "_specialization",
          "type": "string"
        },
        {
          "internalType": "string",
          "name": "_email",
          "type": "string"
        },
        {
          "internalType": "string",
          "name": "_username",
          "type": "string"
        },
        {
          "internalType": "string",
          "name": "_doctorId",
          "type": "string"
        },
        {
          "internalType": "string",
          "name": "_licenseNumber",
          "type": "string"
        },
        {
          "internalType": "uint256",
          "name": "_yearsOfExperience",
          "type": "uint256"
        },
        {
          "internalType": "string",
          "name": "_clinicName",
          "type": "string"
        },
        {
          "internalType": "string",
          "name": "_contactNumber",
          "type": "string"
        },
        {
          "internalType": "string",
          "name": "_addressDetails",
          "type": "string"
        }
      ],
      "name": "registerDoctor",
      "outputs": [],
      "stateMutability": "nonpayable",
      "type": "function"
    },
    {
      "inputs": [
        {
          "internalType": "string",
          "name": "_date",
          "type": "string"
        },
        {
          "internalType": "string[]",
          "name": "_timeSlots",
          "type": "string[]"
        }
      ],
      "name": "setAvailability",
      "outputs": [],
      "stateMutability": "nonpayable",
      "type": "function"
    },
    {
      "inputs": [
        {
          "internalType": "address",
          "name": "_doctorAddress",
          "type": "address"
        },
        {
          "internalType": "string",
          "name": "_date",
          "type": "string"
        }
      ],
      "name": "getAvailability",
      "outputs": [
        {
          "internalType": "string[]",
          "name": "",
          "type": "string[]"
        }
      ],
      "stateMutability": "view",
      "type": "function",
      "constant": true
    },
    {
      "inputs": [
        {
          "internalType": "string",
          "name": "_date",
          "type": "string"
        },
        {
          "internalType": "string",
          "name": "_time",
          "type": "string"
        }
      ],
      "name": "removeTimeSlot",
      "outputs": [],
      "stateMutability": "nonpayable",
      "type": "function"
    }
  ],
  "bytecode": "0x608060405234801561001057600080fd5b506123b1806100206000396000f3fe608060405234801561001057600080fd5b50600436106100625760003560e01c806304c4288614610067578063927be412146100975780639d9a495c146100c7578063a9583c22146100e3578063be05f2891461011e578063d935c9b91461013a575b600080fd5b610081600480360381019061007c91906118d9565b610156565b60405161008e9190611d3d565b60405180910390f35b6100b160048036038101906100ac91906115e5565b610195565b6040516100be9190611d58565b60405180910390f35b6100e160048036038101906100dc9190611639565b610359565b005b6100fd60048036038101906100f891906115bc565b610821565b6040516101159c9b9a99989796959493929190611e0a565b60405180910390f35b6101386004803603810190610133919061186d565b610d56565b005b610154600480360381019061014f9190611801565b6110d4565b005b6000818154811061016657600080fd5b906000526020600020016000915054906101000a900473ffffffffffffffffffffffffffffffffffffffff1681565b6060600160008473ffffffffffffffffffffffffffffffffffffffff1673ffffffffffffffffffffffffffffffffffffffff168152602001908152602001600020600b0160009054906101000a900460ff16610226576040517f08c379a000000000000000000000000000000000000000000000000000000000815260040161021d90611f23565b60405180910390fd5b600560008473ffffffffffffffffffffffffffffffffffffffff1673ffffffffffffffffffffffffffffffffffffffff168152602001908152602001600020826040516102739190611d0f565b9081526020016040518091039020805480602002602001604051908101604052809291908181526020016000905b8282101561034d5783829060005260206000200180546102c090612234565b80601f01602080910402602001604051908101604052809291908181526020018280546102ec90612234565b80156103395780601f1061030e57610100808354040283529160200191610339565b820191906000526020600020905b81548152906001019060200180831161031c57829003601f168201915b5050505050815260200190600101906102a1565b50505050905092915050565b600160008c73ffffffffffffffffffffffffffffffffffffffff1673ffffffffffffffffffffffffffffffffffffffff168152602001908152602001600020600b0160009054906101000a900460ff16156103e9576040517f08c379a00000000000000000000000000000000000000000000000000000000081526004016103e090611f83565b60405180910390fd5b6003876040516103f99190611d0f565b908152602001604051809103902060009054906101000a900460ff1615610455576040517f08c379a000000000000000000000000000000000000000000000000000000000815260040161044c90611f43565b60405180910390fd5b6004866040516104659190611d0f565b908152602001604051809103902060009054906101000a900460ff16156104c1576040517f08c379a00000000000000000000000000000000000000000000000000000000081526004016104b890611fa3565b60405180910390fd5b6040518061018001604052808b81526020018a81526020018981526020018881526020016000801b815260200187815260200186815260200185815260200184815260200183815260200182815260200160011515815250600160008d73ffffffffffffffffffffffffffffffffffffffff1673ffffffffffffffffffffffffffffffffffffffff16815260200190815260200160002060008201518160000190805190602001906105749291906112af565b5060208201518160010190805190602001906105919291906112af565b5060408201518160020190805190602001906105ae9291906112af565b5060608201518160030190805190602001906105cb9291906112af565b506080820151816004015560a08201518160050190805190602001906105f29291906112af565b5060c082015181600601908051906020019061060f9291906112af565b5060e082015181600701556101008201518160080190805190602001906106379291906112af565b506101208201518160090190805190602001906106559291906112af565b5061014082015181600a0190805190602001906106739291906112af565b5061016082015181600b0160006101000a81548160ff02191690831515021790555090505060016003886040516106aa9190611d0f565b908152602001604051809103902060006101000a81548160ff02191690831515021790555060016004876040516106e19190611d0f565b908152602001604051809103902060006101000a81548160ff0219169083151502179055508a6002886040516107179190611d0f565b908152602001604051809103902060006101000a81548173ffffffffffffffffffffffffffffffffffffffff021916908373ffffffffffffffffffffffffffffffffffffffff16021790555060008b9080600181540180825580915050600190039060005260206000200160009091909190916101000a81548173ffffffffffffffffffffffffffffffffffffffff021916908373ffffffffffffffffffffffffffffffffffffffff1602179055508a73ffffffffffffffffffffffffffffffffffffffff167f20481b8112b5bf4734f45a473c373db9df6a79ce946cdc0e7dbc22b4f7d7f9868860405161080c9190611d7a565b60405180910390a25050505050505050505050565b600160205280600052604060002060009150905080600001805461084490612234565b80601f016020809104026020016040519081016040528092919081815260200182805461087090612234565b80156108bd5780601f10610892576101008083540402835291602001916108bd565b820191906000526020600020905b8154815290600101906020018083116108a057829003601f168201915b5050505050908060010180546108d290612234565b80601f01602080910402602001604051908101604052809291908181526020018280546108fe90612234565b801561094b5780601f106109205761010080835404028352916020019161094b565b820191906000526020600020905b81548152906001019060200180831161092e57829003601f168201915b50505050509080600201805461096090612234565b80601f016020809104026020016040519081016040528092919081815260200182805461098c90612234565b80156109d95780601f106109ae576101008083540402835291602001916109d9565b820191906000526020600020905b8154815290600101906020018083116109bc57829003601f168201915b5050505050908060030180546109ee90612234565b80601f0160208091040260200160405190810160405280929190818152602001828054610a1a90612234565b8015610a675780601f10610a3c57610100808354040283529160200191610a67565b820191906000526020600020905b815481529060010190602001808311610a4a57829003601f168201915b505050505090806004015490806005018054610a8290612234565b80601f0160208091040260200160405190810160405280929190818152602001828054610aae90612234565b8015610afb5780601f10610ad057610100808354040283529160200191610afb565b820191906000526020600020905b815481529060010190602001808311610ade57829003601f168201915b505050505090806006018054610b1090612234565b80601f0160208091040260200160405190810160405280929190818152602001828054610b3c90612234565b8015610b895780601f10610b5e57610100808354040283529160200191610b89565b820191906000526020600020905b815481529060010190602001808311610b6c57829003601f168201915b505050505090806007015490806008018054610ba490612234565b80601f0160208091040260200160405190810160405280929190818152602001828054610bd090612234565b8015610c1d5780601f10610bf257610100808354040283529160200191610c1d565b820191906000526020600020905b815481529060010190602001808311610c0057829003601f168201915b505050505090806009018054610c3290612234565b80601f0160208091040260200160405190810160405280929190818152602001828054610c5e90612234565b8015610cab5780601f10610c8057610100808354040283529160200191610cab565b820191906000526020600020905b815481529060010190602001808311610c8e57829003601f168201915b50505050509080600a018054610cc090612234565b80601f0160208091040260200160405190810160405280929190818152602001828054610cec90612234565b8015610d395780601f10610d0e57610100808354040283529160200191610d39565b820191906000526020600020905b815481529060010190602001808311610d1c57829003601f168201915b50505050509080600b0160009054906101000a900460ff1690508c565b600160003373ffffffffffffffffffffffffffffffffffffffff1673ffffffffffffffffffffffffffffffffffffffff168152602001908152602001600020600b0160009054906101000a900460ff16610de5576040517f08c379a0000000000000000000000000000000000000000000000000000000008152600401610ddc90611f23565b60405180910390fd5b6000600560003373ffffffffffffffffffffffffffffffffffffffff1673ffffffffffffffffffffffffffffffffffffffff16815260200190815260200160002083604051610e349190611d0f565b9081526020016040518091039020905060008060005b8380549050811015610f0b5784604051602001610e679190611d0f565b60405160208183030381529060405280519060200120848281548110610eb6577f4e487b7100000000000000000000000000000000000000000000000000000000600052603260045260246000fd5b90600052602060002001604051602001610ed09190611d26565b604051602081830303815290604052805190602001201415610ef85760019250809150610f0b565b8080610f0390612266565b915050610e4a565b5081610f4c576040517f08c379a0000000000000000000000000000000000000000000000000000000008152600401610f4390611f03565b60405180910390fd5b60008190505b60018480549050610f63919061216c565b8110156110275783600182610f789190612116565b81548110610faf577f4e487b7100000000000000000000000000000000000000000000000000000000600052603260045260246000fd5b90600052602060002001848281548110610ff2577f4e487b7100000000000000000000000000000000000000000000000000000000600052603260045260246000fd5b9060005260206000200190805461100890612234565b611013929190611335565b50808061101f90612266565b915050610f52565b508280548061105f577f4e487b7100000000000000000000000000000000000000000000000000000000600052603160045260246000fd5b60019003818190600052602060002001600061107b91906113c2565b90553373ffffffffffffffffffffffffffffffffffffffff167f09408e57f4e786dae2edfcaa16d7d77b01c6dfb975bf8140da5ab46da05ca4a586866040516110c5929190611dd3565b60405180910390a25050505050565b600160003373ffffffffffffffffffffffffffffffffffffffff1673ffffffffffffffffffffffffffffffffffffffff168152602001908152602001600020600b0160009054906101000a900460ff16611163576040517f08c379a000000000000000000000000000000000000000000000000000000000815260040161115a90611f63565b60405180910390fd5b60008251116111a7576040517f08c379a000000000000000000000000000000000000000000000000000000000815260040161119e90611fc3565b60405180910390fd5b60008151116111eb576040517f08c379a00000000000000000000000000000000000000000000000000000000081526004016111e290611fe3565b60405180910390fd5b80600560003373ffffffffffffffffffffffffffffffffffffffff1673ffffffffffffffffffffffffffffffffffffffff168152602001908152602001600020836040516112399190611d0f565b9081526020016040518091039020908051906020019061125a929190611402565b503373ffffffffffffffffffffffffffffffffffffffff167fa5853db7b6529e123a65461a7451558bc3deb95ecea68be92c53b50084340ee683836040516112a3929190611d9c565b60405180910390a25050565b8280546112bb90612234565b90600052602060002090601f0160209004810192826112dd5760008555611324565b82601f106112f657805160ff1916838001178555611324565b82800160010185558215611324579182015b82811115611323578251825591602001919060010190611308565b5b5090506113319190611462565b5090565b82805461134190612234565b90600052602060002090601f01602090048101928261136357600085556113b1565b82601f1061137457805485556113b1565b828001600101855582156113b157600052602060002091601f016020900482015b828111156113b0578254825591600101919060010190611395565b5b5090506113be9190611462565b5090565b5080546113ce90612234565b6000825580601f106113e057506113ff565b601f0160209004906000526020600020908101906113fe9190611462565b5b50565b828054828255906000526020600020908101928215611451579160200282015b828111156114505782518290805190602001906114409291906112af565b5091602001919060010190611422565b5b50905061145e919061147f565b5090565b5b8082111561147b576000816000905550600101611463565b5090565b5b8082111561149f576000818161149691906113c2565b50600101611480565b5090565b60006114b66114b184612034565b612003565b9050808382526020820190508260005b858110156114f657813585016114dc888261157d565b8452602084019350602083019250506001810190506114c6565b5050509392505050565b600061151361150e84612060565b612003565b90508281526020810184848401111561152b57600080fd5b6115368482856121f2565b509392505050565b60008135905061154d8161234d565b92915050565b600082601f83011261156457600080fd5b81356115748482602086016114a3565b91505092915050565b600082601f83011261158e57600080fd5b813561159e848260208601611500565b91505092915050565b6000813590506115b681612364565b92915050565b6000602082840312156115ce57600080fd5b60006115dc8482850161153e565b91505092915050565b600080604083850312156115f857600080fd5b60006116068582860161153e565b925050602083013567ffffffffffffffff81111561162357600080fd5b61162f8582860161157d565b9150509250929050565b60008060008060008060008060008060006101608c8e03121561165b57600080fd5b60006116698e828f0161153e565b9b505060208c013567ffffffffffffffff81111561168657600080fd5b6116928e828f0161157d565b9a505060408c013567ffffffffffffffff8111156116af57600080fd5b6116bb8e828f0161157d565b99505060608c013567ffffffffffffffff8111156116d857600080fd5b6116e48e828f0161157d565b98505060808c013567ffffffffffffffff81111561170157600080fd5b61170d8e828f0161157d565b97505060a08c013567ffffffffffffffff81111561172a57600080fd5b6117368e828f0161157d565b96505060c08c013567ffffffffffffffff81111561175357600080fd5b61175f8e828f0161157d565b95505060e06117708e828f016115a7565b9450506101008c013567ffffffffffffffff81111561178e57600080fd5b61179a8e828f0161157d565b9350506101208c013567ffffffffffffffff8111156117b857600080fd5b6117c48e828f0161157d565b9250506101408c013567ffffffffffffffff8111156117e257600080fd5b6117ee8e828f0161157d565b9150509295989b509295989b9093969950565b6000806040838503121561181457600080fd5b600083013567ffffffffffffffff81111561182e57600080fd5b61183a8582860161157d565b925050602083013567ffffffffffffffff81111561185757600080fd5b61186385828601611553565b9150509250929050565b6000806040838503121561188057600080fd5b600083013567ffffffffffffffff81111561189a57600080fd5b6118a68582860161157d565b925050602083013567ffffffffffffffff8111156118c357600080fd5b6118cf8582860161157d565b9150509250929050565b6000602082840312156118eb57600080fd5b60006118f9848285016115a7565b91505092915050565b600061190e83836119b8565b905092915050565b61191f816121a0565b82525050565b6000611930826120b5565b61193a81856120d8565b93508360208202850161194c85612090565b8060005b8581101561198857848403895281516119698582611902565b9450611974836120cb565b925060208a01995050600181019050611950565b50829750879550505050505092915050565b6119a3816121b2565b82525050565b6119b2816121be565b82525050565b60006119c3826120c0565b6119cd81856120e9565b93506119dd818560208601612201565b6119e68161233c565b840191505092915050565b60006119fc826120c0565b611a0681856120fa565b9350611a16818560208601612201565b611a1f8161233c565b840191505092915050565b6000611a35826120c0565b611a3f818561210b565b9350611a4f818560208601612201565b80840191505092915050565b60008154611a6881612234565b611a72818661210b565b94506001821660008114611a8d5760018114611a9e57611ad1565b60ff19831686528186019350611ad1565b611aa7856120a0565b60005b83811015611ac957815481890152600182019150602081019050611aaa565b838801955050505b50505092915050565b6000611ae76013836120fa565b91507f54696d6520736c6f74206e6f7420666f756e64000000000000000000000000006000830152602082019050919050565b6000611b276015836120fa565b91507f446f63746f72206e6f74207265676973746572656400000000000000000000006000830152602082019050919050565b6000611b676016836120fa565b91507f557365726e616d6520616c72656164792074616b656e000000000000000000006000830152602082019050919050565b6000611ba7602c836120fa565b91507f4f6e6c79207265676973746572656420646f63746f72732063616e207365742060008301527f617661696c6162696c69747900000000000000000000000000000000000000006020830152604082019050919050565b6000611c0d6019836120fa565b91507f446f63746f7220616c72656164792072656769737465726564000000000000006000830152602082019050919050565b6000611c4d6018836120fa565b91507f446f63746f7220494420616c72656164792065786973747300000000000000006000830152602082019050919050565b6000611c8d600c836120fa565b91507f496e76616c6964206461746500000000000000000000000000000000000000006000830152602082019050919050565b6000611ccd601f836120fa565b91507f4174206c65617374206f6e652074696d6520736c6f74207265717569726564006000830152602082019050919050565b611d09816121e8565b82525050565b6000611d1b8284611a2a565b915081905092915050565b6000611d328284611a5b565b915081905092915050565b6000602082019050611d526000830184611916565b92915050565b60006020820190508181036000830152611d728184611925565b905092915050565b60006020820190508181036000830152611d9481846119f1565b905092915050565b60006040820190508181036000830152611db681856119f1565b90508181036020830152611dca8184611925565b90509392505050565b60006040820190508181036000830152611ded81856119f1565b90508181036020830152611e0181846119f1565b90509392505050565b6000610180820190508181036000830152611e25818f6119f1565b90508181036020830152611e39818e6119f1565b90508181036040830152611e4d818d6119f1565b90508181036060830152611e61818c6119f1565b9050611e70608083018b6119a9565b81810360a0830152611e82818a6119f1565b905081810360c0830152611e9681896119f1565b9050611ea560e0830188611d00565b818103610100830152611eb881876119f1565b9050818103610120830152611ecd81866119f1565b9050818103610140830152611ee281856119f1565b9050611ef261016083018461199a565b9d9c50505050505050505050505050565b60006020820190508181036000830152611f1c81611ada565b9050919050565b60006020820190508181036000830152611f3c81611b1a565b9050919050565b60006020820190508181036000830152611f5c81611b5a565b9050919050565b60006020820190508181036000830152611f7c81611b9a565b9050919050565b60006020820190508181036000830152611f9c81611c00565b9050919050565b60006020820190508181036000830152611fbc81611c40565b9050919050565b60006020820190508181036000830152611fdc81611c80565b9050919050565b60006020820190508181036000830152611ffc81611cc0565b9050919050565b6000604051905081810181811067ffffffffffffffff8211171561202a5761202961230d565b5b8060405250919050565b600067ffffffffffffffff82111561204f5761204e61230d565b5b602082029050602081019050919050565b600067ffffffffffffffff82111561207b5761207a61230d565b5b601f19601f8301169050602081019050919050565b6000819050602082019050919050565b60008190508160005260206000209050919050565b600081519050919050565b600081519050919050565b6000602082019050919050565b600082825260208201905092915050565b600082825260208201905092915050565b600082825260208201905092915050565b600081905092915050565b6000612121826121e8565b915061212c836121e8565b9250827fffffffffffffffffffffffffffffffffffffffffffffffffffffffffffffffff03821115612161576121606122af565b5b828201905092915050565b6000612177826121e8565b9150612182836121e8565b925082821015612195576121946122af565b5b828203905092915050565b60006121ab826121c8565b9050919050565b60008115159050919050565b6000819050919050565b600073ffffffffffffffffffffffffffffffffffffffff82169050919050565b6000819050919050565b82818337600083830152505050565b60005b8381101561221f578082015181840152602081019050612204565b8381111561222e576000848401525b50505050565b6000600282049050600182168061224c57607f821691505b602082108114156122605761225f6122de565b5b50919050565b6000612271826121e8565b91507fffffffffffffffffffffffffffffffffffffffffffffffffffffffffffffffff8214156122a4576122a36122af565b5b600182019050919050565b7f4e487b7100000000000000000000000000000000000000000000000000000000600052601160045260246000fd5b7f4e487b7100000000000000000000000000000000000000000000000000000000600052602260045260246000fd5b7f4e487b7100000000000000000000000000000000000000000000000000000000600052604160045260246000fd5b6000601f19601f8301169050919050565b612356816121a0565b811461236157600080fd5b50565b61236d816121e8565b811461237857600080fd5b5056fea2646970667358221220109fce5db38eabc039db368308dce23ecca5451bdedc32501e4ba9f3bc511c9764736f6c63430008000033",
  "immutableReferences": {},
  "source": "// SPDX-License-Identifier: MIT\r\npragma solidity ^0.8.0;\r\n\r\ncontract HealthcareSystem {\r\n    \r\n    struct Doctor {\r\n        string name;\r\n        string specialization;\r\n        string email;\r\n        string username;\r\n        bytes32 passwordHash;\r\n        string doctorId; // Unique doctor ID\r\n        string licenseNumber;\r\n        uint256 yearsOfExperience;\r\n        string clinicName;\r\n        string contactNumber;\r\n        string addressDetails;\r\n        bool isRegistered;\r\n    }\r\n\r\n    struct Availability {\r\n        string date; // Date in YYYY-MM-DD format\r\n        string[] timeSlots; // List of available time slots\r\n    }\r\n\r\n    address[] public registeredDoctors;\r\n\r\n    mapping(address => Doctor) public doctors;\r\n\r\n    mapping(string => address) private usernameToAddress; // Maps username to doctors address\r\n\r\n    mapping(string => bool) private usernameExists;\r\n    mapping(string => bool) private doctorIdExists; // To ensure unique Doctor ID\r\n\r\n    mapping(address => mapping(string => string[])) private doctorAvailability; // Doctor -> (Date -> Time Slots)\r\n    mapping(address => bytes32) private passwordResetCodes; // Stores password reset codes\r\n\r\n\r\n    event DoctorRegistered(address indexed doctorAddress, string username);\r\n    event PasswordResetRequested(address indexed doctorAddress, bytes32 resetCode);\r\n    event PasswordResetSuccessful(address indexed doctorAddress);\r\n\r\n    event TimeSlotRemoved(address indexed doctor, string date, string time);\r\n\r\n    event AvailabilitySet(address indexed doctorAddress, string date, string[] timeSlots);\r\n\r\n    function registerDoctor(\r\n        address _doctorAddress,\r\n        string memory _name,\r\n        string memory _specialization,\r\n        string memory _email,\r\n        string memory _username,\r\n        string memory _doctorId,\r\n        string memory _licenseNumber,\r\n        uint256 _yearsOfExperience,\r\n        string memory _clinicName,\r\n        string memory _contactNumber,\r\n        string memory _addressDetails\r\n    ) public {\r\n        require(!doctors[_doctorAddress].isRegistered, \"Doctor already registered\");\r\n        require(!usernameExists[_username], \"Username already taken\");\r\n        require(!doctorIdExists[_doctorId], \"Doctor ID already exists\");\r\n\r\n        doctors[_doctorAddress] = Doctor({\r\n            name: _name,\r\n            specialization: _specialization,\r\n            email: _email,\r\n            username: _username,\r\n            passwordHash: 0,\r\n            doctorId: _doctorId,\r\n            licenseNumber: _licenseNumber,\r\n            yearsOfExperience: _yearsOfExperience,\r\n            clinicName: _clinicName,\r\n            contactNumber: _contactNumber,\r\n            addressDetails: _addressDetails,\r\n            isRegistered: true\r\n        });\r\n\r\n        usernameExists[_username] = true;\r\n        doctorIdExists[_doctorId] = true;\r\n        usernameToAddress[_username] = _doctorAddress;\r\n\r\n        registeredDoctors.push(_doctorAddress);\r\n\r\n        emit DoctorRegistered(_doctorAddress, _username);\r\n    }\r\n\r\n    // Set availability\r\n    function setAvailability(string memory _date, string[] memory _timeSlots) public {\r\n        require(doctors[msg.sender].isRegistered, \"Only registered doctors can set availability\");\r\n        require(bytes(_date).length > 0, \"Invalid date\");\r\n        require(_timeSlots.length > 0, \"At least one time slot required\");\r\n\r\n        doctorAvailability[msg.sender][_date] = _timeSlots;\r\n        emit AvailabilitySet(msg.sender, _date, _timeSlots);\r\n    }\r\n\r\n    // Get a doctor's availability\r\n    function getAvailability(address _doctorAddress, string memory _date) public view returns (string[] memory) {\r\n        require(doctors[_doctorAddress].isRegistered, \"Doctor not registered\");\r\n        return doctorAvailability[_doctorAddress][_date];\r\n    }\r\n\r\n    function removeTimeSlot(string memory _date, string memory _time) public {\r\n    require(doctors[msg.sender].isRegistered, \"Doctor not registered\");\r\n\r\n    string[] storage timeSlots = doctorAvailability[msg.sender][_date];\r\n    bool timeSlotFound = false;\r\n    uint256 index = 0;\r\n\r\n    for (uint i = 0; i < timeSlots.length; i++) {\r\n        if (keccak256(abi.encodePacked(timeSlots[i])) == keccak256(abi.encodePacked(_time))) {\r\n            timeSlotFound = true;\r\n            index = i;\r\n            break;\r\n        }\r\n    }\r\n\r\n    require(timeSlotFound, \"Time slot not found\");\r\n\r\n    // Shift left and pop\r\n    for (uint j = index; j < timeSlots.length - 1; j++) {\r\n        timeSlots[j] = timeSlots[j + 1];\r\n    }\r\n    timeSlots.pop();\r\n\r\n    emit TimeSlotRemoved(msg.sender, _date, _time);\r\n}\r\n\r\n}\r\n",
  "sourcePath": "C:\\Users\\Student\\MyNewDApp\\frontend\\healthcaresystem\\contracts\\HealthcareSystem.sol",
  "compiler": {
    "name": "solc",
    "version": "0.8.0+commit.c7dfd78e.Emscripten.clang"
  },
  "schemaVersion": "3.4.16",
  "updatedAt": "2025-04-13T00:57:08.962Z",
  "networkType": "ethereum",
  "devdoc": {
    "kind": "dev",
    "methods": {},
    "version": 1
  },
  "userdoc": {
    "kind": "user",
    "methods": {},
    "version": 1
  }
}