{
  "contractName": "HealthcareSystem",
  "abi": [
    {
      "anonymous": false,
      "inputs": [
        {
          "indexed": true,
          "internalType": "address",
          "name": "doctorAddress",
          "type": "address"
        },
        {
          "indexed": false,
          "internalType": "string",
          "name": "date",
          "type": "string"
        },
        {
          "indexed": false,
          "internalType": "string[]",
          "name": "timeSlots",
          "type": "string[]"
        }
      ],
      "name": "AvailabilitySet",
      "type": "event"
    },
    {
      "anonymous": false,
      "inputs": [
        {
          "indexed": true,
          "internalType": "address",
          "name": "doctorAddress",
          "type": "address"
        },
        {
          "indexed": false,
          "internalType": "string",
          "name": "username",
          "type": "string"
        }
      ],
      "name": "DoctorRegistered",
      "type": "event"
    },
    {
      "anonymous": false,
      "inputs": [
        {
          "indexed": true,
          "internalType": "address",
          "name": "doctorAddress",
          "type": "address"
        },
        {
          "indexed": false,
          "internalType": "bytes32",
          "name": "resetCode",
          "type": "bytes32"
        }
      ],
      "name": "PasswordResetRequested",
      "type": "event"
    },
    {
      "anonymous": false,
      "inputs": [
        {
          "indexed": true,
          "internalType": "address",
          "name": "doctorAddress",
          "type": "address"
        }
      ],
      "name": "PasswordResetSuccessful",
      "type": "event"
    },
    {
      "anonymous": false,
      "inputs": [
        {
          "indexed": true,
          "internalType": "address",
          "name": "doctor",
          "type": "address"
        },
        {
          "indexed": false,
          "internalType": "string",
          "name": "date",
          "type": "string"
        },
        {
          "indexed": false,
          "internalType": "string",
          "name": "time",
          "type": "string"
        }
      ],
      "name": "TimeSlotRemoved",
      "type": "event"
    },
    {
      "inputs": [
        {
          "internalType": "address",
          "name": "",
          "type": "address"
        }
      ],
      "name": "doctors",
      "outputs": [
        {
          "internalType": "string",
          "name": "name",
          "type": "string"
        },
        {
          "internalType": "string",
          "name": "specialization",
          "type": "string"
        },
        {
          "internalType": "string",
          "name": "email",
          "type": "string"
        },
        {
          "internalType": "string",
          "name": "username",
          "type": "string"
        },
        {
          "internalType": "bytes32",
          "name": "passwordHash",
          "type": "bytes32"
        },
        {
          "internalType": "string",
          "name": "doctorId",
          "type": "string"
        },
        {
          "internalType": "string",
          "name": "licenseNumber",
          "type": "string"
        },
        {
          "internalType": "uint256",
          "name": "yearsOfExperience",
          "type": "uint256"
        },
        {
          "internalType": "string",
          "name": "clinicName",
          "type": "string"
        },
        {
          "internalType": "string",
          "name": "contactNumber",
          "type": "string"
        },
        {
          "internalType": "string",
          "name": "addressDetails",
          "type": "string"
        },
        {
          "internalType": "bool",
          "name": "isRegistered",
          "type": "bool"
        }
      ],
      "stateMutability": "view",
      "type": "function",
      "constant": true
    },
    {
      "inputs": [
        {
          "internalType": "uint256",
          "name": "",
          "type": "uint256"
        }
      ],
      "name": "registeredDoctors",
      "outputs": [
        {
          "internalType": "address",
          "name": "",
          "type": "address"
        }
      ],
      "stateMutability": "view",
      "type": "function",
      "constant": true
    },
    {
      "inputs": [
        {
          "internalType": "address",
          "name": "_doctorAddress",
          "type": "address"
        },
        {
          "internalType": "string",
          "name": "_name",
          "type": "string"
        },
        {
          "internalType": "string",
          "name": "_specialization",
          "type": "string"
        },
        {
          "internalType": "string",
          "name": "_email",
          "type": "string"
        },
        {
          "internalType": "string",
          "name": "_username",
          "type": "string"
        },
        {
          "internalType": "string",
          "name": "_doctorId",
          "type": "string"
        },
        {
          "internalType": "string",
          "name": "_licenseNumber",
          "type": "string"
        },
        {
          "internalType": "uint256",
          "name": "_yearsOfExperience",
          "type": "uint256"
        },
        {
          "internalType": "string",
          "name": "_clinicName",
          "type": "string"
        },
        {
          "internalType": "string",
          "name": "_contactNumber",
          "type": "string"
        },
        {
          "internalType": "string",
          "name": "_addressDetails",
          "type": "string"
        }
      ],
      "name": "registerDoctor",
      "outputs": [],
      "stateMutability": "nonpayable",
      "type": "function"
    },
    {
      "inputs": [
        {
          "internalType": "string",
          "name": "_date",
          "type": "string"
        },
        {
          "internalType": "string[]",
          "name": "_timeSlots",
          "type": "string[]"
        }
      ],
      "name": "setAvailability",
      "outputs": [],
      "stateMutability": "nonpayable",
      "type": "function"
    },
    {
      "inputs": [
        {
          "internalType": "address",
          "name": "_doctorAddress",
          "type": "address"
        },
        {
          "internalType": "string",
          "name": "_date",
          "type": "string"
        }
      ],
      "name": "getAvailability",
      "outputs": [
        {
          "internalType": "string[]",
          "name": "",
          "type": "string[]"
        }
      ],
      "stateMutability": "view",
      "type": "function",
      "constant": true
    }
  ],
  "bytecode": "0x608060405234801561001057600080fd5b50611ccf806100206000396000f3fe608060405234801561001057600080fd5b50600436106100575760003560e01c806304c428861461005c578063927be4121461008c5780639d9a495c146100bc578063a9583c22146100d8578063d935c9b914610113575b600080fd5b6100766004803603810190610071919061143b565b61012f565b60405161008391906117c9565b60405180910390f35b6100a660048036038101906100a191906111b3565b61016e565b6040516100b391906117e4565b60405180910390f35b6100d660048036038101906100d19190611207565b610332565b005b6100f260048036038101906100ed919061118a565b6107fa565b60405161010a9c9b9a9998979695949392919061185f565b60405180910390f35b61012d600480360381019061012891906113cf565b610d2f565b005b6000818154811061013f57600080fd5b906000526020600020016000915054906101000a900473ffffffffffffffffffffffffffffffffffffffff1681565b6060600160008473ffffffffffffffffffffffffffffffffffffffff1673ffffffffffffffffffffffffffffffffffffffff168152602001908152602001600020600b0160009054906101000a900460ff166101ff576040517f08c379a00000000000000000000000000000000000000000000000000000000081526004016101f690611958565b60405180910390fd5b600560008473ffffffffffffffffffffffffffffffffffffffff1673ffffffffffffffffffffffffffffffffffffffff1681526020019081526020016000208260405161024c91906117b2565b9081526020016040518091039020805480602002602001604051908101604052809291908181526020016000905b8282101561032657838290600052602060002001805461029990611bca565b80601f01602080910402602001604051908101604052809291908181526020018280546102c590611bca565b80156103125780601f106102e757610100808354040283529160200191610312565b820191906000526020600020905b8154815290600101906020018083116102f557829003601f168201915b50505050508152602001906001019061027a565b50505050905092915050565b600160008c73ffffffffffffffffffffffffffffffffffffffff1673ffffffffffffffffffffffffffffffffffffffff168152602001908152602001600020600b0160009054906101000a900460ff16156103c2576040517f08c379a00000000000000000000000000000000000000000000000000000000081526004016103b9906119b8565b60405180910390fd5b6003876040516103d291906117b2565b908152602001604051809103902060009054906101000a900460ff161561042e576040517f08c379a000000000000000000000000000000000000000000000000000000000815260040161042590611978565b60405180910390fd5b60048660405161043e91906117b2565b908152602001604051809103902060009054906101000a900460ff161561049a576040517f08c379a0000000000000000000000000000000000000000000000000000000008152600401610491906119d8565b60405180910390fd5b6040518061018001604052808b81526020018a81526020018981526020018881526020016000801b815260200187815260200186815260200185815260200184815260200183815260200182815260200160011515815250600160008d73ffffffffffffffffffffffffffffffffffffffff1673ffffffffffffffffffffffffffffffffffffffff168152602001908152602001600020600082015181600001908051906020019061054d929190610f0a565b50602082015181600101908051906020019061056a929190610f0a565b506040820151816002019080519060200190610587929190610f0a565b5060608201518160030190805190602001906105a4929190610f0a565b506080820151816004015560a08201518160050190805190602001906105cb929190610f0a565b5060c08201518160060190805190602001906105e8929190610f0a565b5060e08201518160070155610100820151816008019080519060200190610610929190610f0a565b5061012082015181600901908051906020019061062e929190610f0a565b5061014082015181600a01908051906020019061064c929190610f0a565b5061016082015181600b0160006101000a81548160ff021916908315150217905550905050600160038860405161068391906117b2565b908152602001604051809103902060006101000a81548160ff02191690831515021790555060016004876040516106ba91906117b2565b908152602001604051809103902060006101000a81548160ff0219169083151502179055508a6002886040516106f091906117b2565b908152602001604051809103902060006101000a81548173ffffffffffffffffffffffffffffffffffffffff021916908373ffffffffffffffffffffffffffffffffffffffff16021790555060008b9080600181540180825580915050600190039060005260206000200160009091909190916101000a81548173ffffffffffffffffffffffffffffffffffffffff021916908373ffffffffffffffffffffffffffffffffffffffff1602179055508a73ffffffffffffffffffffffffffffffffffffffff167f20481b8112b5bf4734f45a473c373db9df6a79ce946cdc0e7dbc22b4f7d7f986886040516107e59190611806565b60405180910390a25050505050505050505050565b600160205280600052604060002060009150905080600001805461081d90611bca565b80601f016020809104026020016040519081016040528092919081815260200182805461084990611bca565b80156108965780601f1061086b57610100808354040283529160200191610896565b820191906000526020600020905b81548152906001019060200180831161087957829003601f168201915b5050505050908060010180546108ab90611bca565b80601f01602080910402602001604051908101604052809291908181526020018280546108d790611bca565b80156109245780601f106108f957610100808354040283529160200191610924565b820191906000526020600020905b81548152906001019060200180831161090757829003601f168201915b50505050509080600201805461093990611bca565b80601f016020809104026020016040519081016040528092919081815260200182805461096590611bca565b80156109b25780601f10610987576101008083540402835291602001916109b2565b820191906000526020600020905b81548152906001019060200180831161099557829003601f168201915b5050505050908060030180546109c790611bca565b80601f01602080910402602001604051908101604052809291908181526020018280546109f390611bca565b8015610a405780601f10610a1557610100808354040283529160200191610a40565b820191906000526020600020905b815481529060010190602001808311610a2357829003601f168201915b505050505090806004015490806005018054610a5b90611bca565b80601f0160208091040260200160405190810160405280929190818152602001828054610a8790611bca565b8015610ad45780601f10610aa957610100808354040283529160200191610ad4565b820191906000526020600020905b815481529060010190602001808311610ab757829003601f168201915b505050505090806006018054610ae990611bca565b80601f0160208091040260200160405190810160405280929190818152602001828054610b1590611bca565b8015610b625780601f10610b3757610100808354040283529160200191610b62565b820191906000526020600020905b815481529060010190602001808311610b4557829003601f168201915b505050505090806007015490806008018054610b7d90611bca565b80601f0160208091040260200160405190810160405280929190818152602001828054610ba990611bca565b8015610bf65780601f10610bcb57610100808354040283529160200191610bf6565b820191906000526020600020905b815481529060010190602001808311610bd957829003601f168201915b505050505090806009018054610c0b90611bca565b80601f0160208091040260200160405190810160405280929190818152602001828054610c3790611bca565b8015610c845780601f10610c5957610100808354040283529160200191610c84565b820191906000526020600020905b815481529060010190602001808311610c6757829003601f168201915b50505050509080600a018054610c9990611bca565b80601f0160208091040260200160405190810160405280929190818152602001828054610cc590611bca565b8015610d125780601f10610ce757610100808354040283529160200191610d12565b820191906000526020600020905b815481529060010190602001808311610cf557829003601f168201915b50505050509080600b0160009054906101000a900460ff1690508c565b600160003373ffffffffffffffffffffffffffffffffffffffff1673ffffffffffffffffffffffffffffffffffffffff168152602001908152602001600020600b0160009054906101000a900460ff16610dbe576040517f08c379a0000000000000000000000000000000000000000000000000000000008152600401610db590611998565b60405180910390fd5b6000825111610e02576040517f08c379a0000000000000000000000000000000000000000000000000000000008152600401610df9906119f8565b60405180910390fd5b6000815111610e46576040517f08c379a0000000000000000000000000000000000000000000000000000000008152600401610e3d90611a18565b60405180910390fd5b80600560003373ffffffffffffffffffffffffffffffffffffffff1673ffffffffffffffffffffffffffffffffffffffff16815260200190815260200160002083604051610e9491906117b2565b90815260200160405180910390209080519060200190610eb5929190610f90565b503373ffffffffffffffffffffffffffffffffffffffff167fa5853db7b6529e123a65461a7451558bc3deb95ecea68be92c53b50084340ee68383604051610efe929190611828565b60405180910390a25050565b828054610f1690611bca565b90600052602060002090601f016020900481019282610f385760008555610f7f565b82601f10610f5157805160ff1916838001178555610f7f565b82800160010185558215610f7f579182015b82811115610f7e578251825591602001919060010190610f63565b5b509050610f8c9190610ff0565b5090565b828054828255906000526020600020908101928215610fdf579160200282015b82811115610fde578251829080519060200190610fce929190610f0a565b5091602001919060010190610fb0565b5b509050610fec919061100d565b5090565b5b80821115611009576000816000905550600101610ff1565b5090565b5b8082111561102d57600081816110249190611031565b5060010161100e565b5090565b50805461103d90611bca565b6000825580601f1061104f575061106e565b601f01602090049060005260206000209081019061106d9190610ff0565b5b50565b600061108461107f84611a69565b611a38565b9050808382526020820190508260005b858110156110c457813585016110aa888261114b565b845260208401935060208301925050600181019050611094565b5050509392505050565b60006110e16110dc84611a95565b611a38565b9050828152602081018484840111156110f957600080fd5b611104848285611b88565b509392505050565b60008135905061111b81611c6b565b92915050565b600082601f83011261113257600080fd5b8135611142848260208601611071565b91505092915050565b600082601f83011261115c57600080fd5b813561116c8482602086016110ce565b91505092915050565b60008135905061118481611c82565b92915050565b60006020828403121561119c57600080fd5b60006111aa8482850161110c565b91505092915050565b600080604083850312156111c657600080fd5b60006111d48582860161110c565b925050602083013567ffffffffffffffff8111156111f157600080fd5b6111fd8582860161114b565b9150509250929050565b60008060008060008060008060008060006101608c8e03121561122957600080fd5b60006112378e828f0161110c565b9b505060208c013567ffffffffffffffff81111561125457600080fd5b6112608e828f0161114b565b9a505060408c013567ffffffffffffffff81111561127d57600080fd5b6112898e828f0161114b565b99505060608c013567ffffffffffffffff8111156112a657600080fd5b6112b28e828f0161114b565b98505060808c013567ffffffffffffffff8111156112cf57600080fd5b6112db8e828f0161114b565b97505060a08c013567ffffffffffffffff8111156112f857600080fd5b6113048e828f0161114b565b96505060c08c013567ffffffffffffffff81111561132157600080fd5b61132d8e828f0161114b565b95505060e061133e8e828f01611175565b9450506101008c013567ffffffffffffffff81111561135c57600080fd5b6113688e828f0161114b565b9350506101208c013567ffffffffffffffff81111561138657600080fd5b6113928e828f0161114b565b9250506101408c013567ffffffffffffffff8111156113b057600080fd5b6113bc8e828f0161114b565b9150509295989b509295989b9093969950565b600080604083850312156113e257600080fd5b600083013567ffffffffffffffff8111156113fc57600080fd5b6114088582860161114b565b925050602083013567ffffffffffffffff81111561142557600080fd5b61143185828601611121565b9150509250929050565b60006020828403121561144d57600080fd5b600061145b84828501611175565b91505092915050565b6000611470838361151a565b905092915050565b61148181611b36565b82525050565b600061149282611ad5565b61149c8185611af8565b9350836020820285016114ae85611ac5565b8060005b858110156114ea57848403895281516114cb8582611464565b94506114d683611aeb565b925060208a019950506001810190506114b2565b50829750879550505050505092915050565b61150581611b48565b82525050565b61151481611b54565b82525050565b600061152582611ae0565b61152f8185611b09565b935061153f818560208601611b97565b61154881611c5a565b840191505092915050565b600061155e82611ae0565b6115688185611b1a565b9350611578818560208601611b97565b61158181611c5a565b840191505092915050565b600061159782611ae0565b6115a18185611b2b565b93506115b1818560208601611b97565b80840191505092915050565b60006115ca601583611b1a565b91507f446f63746f72206e6f74207265676973746572656400000000000000000000006000830152602082019050919050565b600061160a601683611b1a565b91507f557365726e616d6520616c72656164792074616b656e000000000000000000006000830152602082019050919050565b600061164a602c83611b1a565b91507f4f6e6c79207265676973746572656420646f63746f72732063616e207365742060008301527f617661696c6162696c69747900000000000000000000000000000000000000006020830152604082019050919050565b60006116b0601983611b1a565b91507f446f63746f7220616c72656164792072656769737465726564000000000000006000830152602082019050919050565b60006116f0601883611b1a565b91507f446f63746f7220494420616c72656164792065786973747300000000000000006000830152602082019050919050565b6000611730600c83611b1a565b91507f496e76616c6964206461746500000000000000000000000000000000000000006000830152602082019050919050565b6000611770601f83611b1a565b91507f4174206c65617374206f6e652074696d6520736c6f74207265717569726564006000830152602082019050919050565b6117ac81611b7e565b82525050565b60006117be828461158c565b915081905092915050565b60006020820190506117de6000830184611478565b92915050565b600060208201905081810360008301526117fe8184611487565b905092915050565b600060208201905081810360008301526118208184611553565b905092915050565b600060408201905081810360008301526118428185611553565b905081810360208301526118568184611487565b90509392505050565b600061018082019050818103600083015261187a818f611553565b9050818103602083015261188e818e611553565b905081810360408301526118a2818d611553565b905081810360608301526118b6818c611553565b90506118c5608083018b61150b565b81810360a08301526118d7818a611553565b905081810360c08301526118eb8189611553565b90506118fa60e08301886117a3565b81810361010083015261190d8187611553565b90508181036101208301526119228186611553565b90508181036101408301526119378185611553565b90506119476101608301846114fc565b9d9c50505050505050505050505050565b60006020820190508181036000830152611971816115bd565b9050919050565b60006020820190508181036000830152611991816115fd565b9050919050565b600060208201905081810360008301526119b18161163d565b9050919050565b600060208201905081810360008301526119d1816116a3565b9050919050565b600060208201905081810360008301526119f1816116e3565b9050919050565b60006020820190508181036000830152611a1181611723565b9050919050565b60006020820190508181036000830152611a3181611763565b9050919050565b6000604051905081810181811067ffffffffffffffff82111715611a5f57611a5e611c2b565b5b8060405250919050565b600067ffffffffffffffff821115611a8457611a83611c2b565b5b602082029050602081019050919050565b600067ffffffffffffffff821115611ab057611aaf611c2b565b5b601f19601f8301169050602081019050919050565b6000819050602082019050919050565b600081519050919050565b600081519050919050565b6000602082019050919050565b600082825260208201905092915050565b600082825260208201905092915050565b600082825260208201905092915050565b600081905092915050565b6000611b4182611b5e565b9050919050565b60008115159050919050565b6000819050919050565b600073ffffffffffffffffffffffffffffffffffffffff82169050919050565b6000819050919050565b82818337600083830152505050565b60005b83811015611bb5578082015181840152602081019050611b9a565b83811115611bc4576000848401525b50505050565b60006002820490506001821680611be257607f821691505b60208210811415611bf657611bf5611bfc565b5b50919050565b7f4e487b7100000000000000000000000000000000000000000000000000000000600052602260045260246000fd5b7f4e487b7100000000000000000000000000000000000000000000000000000000600052604160045260246000fd5b6000601f19601f8301169050919050565b611c7481611b36565b8114611c7f57600080fd5b50565b611c8b81611b7e565b8114611c9657600080fd5b5056fea26469706673582212209e145bed412145153f89baa578666ddf225e1ec5292c094db0a8270d9f8f5f1564736f6c63430008000033",
  "immutableReferences": {},
  "source": "// SPDX-License-Identifier: MIT\r\npragma solidity ^0.8.0;\r\n\r\ncontract HealthcareSystem {\r\n    \r\n    struct Doctor {\r\n        string name;\r\n        string specialization;\r\n        string email;\r\n        string username;\r\n        bytes32 passwordHash;\r\n        string doctorId; // Unique doctor ID\r\n        string licenseNumber;\r\n        uint256 yearsOfExperience;\r\n        string clinicName;\r\n        string contactNumber;\r\n        string addressDetails;\r\n        bool isRegistered;\r\n    }\r\n\r\n    struct Availability {\r\n        string date; // Date in YYYY-MM-DD format\r\n        string[] timeSlots; // List of available time slots\r\n    }\r\n\r\n    address[] public registeredDoctors;\r\n\r\n    mapping(address => Doctor) public doctors;\r\n\r\n    mapping(string => address) private usernameToAddress; // Maps username to doctors address\r\n\r\n    mapping(string => bool) private usernameExists;\r\n    mapping(string => bool) private doctorIdExists; // To ensure unique Doctor ID\r\n\r\n    mapping(address => mapping(string => string[])) private doctorAvailability; // Doctor -> (Date -> Time Slots)\r\n    mapping(address => bytes32) private passwordResetCodes; // Stores password reset codes\r\n\r\n\r\n    event DoctorRegistered(address indexed doctorAddress, string username);\r\n    event PasswordResetRequested(address indexed doctorAddress, bytes32 resetCode);\r\n    event PasswordResetSuccessful(address indexed doctorAddress);\r\n\r\n    event TimeSlotRemoved(address indexed doctor, string date, string time);\r\n\r\n    event AvailabilitySet(address indexed doctorAddress, string date, string[] timeSlots);\r\n\r\n    function registerDoctor(\r\n        address _doctorAddress,\r\n        string memory _name,\r\n        string memory _specialization,\r\n        string memory _email,\r\n        string memory _username,\r\n        string memory _doctorId,\r\n        string memory _licenseNumber,\r\n        uint256 _yearsOfExperience,\r\n        string memory _clinicName,\r\n        string memory _contactNumber,\r\n        string memory _addressDetails\r\n    ) public {\r\n        require(!doctors[_doctorAddress].isRegistered, \"Doctor already registered\");\r\n        require(!usernameExists[_username], \"Username already taken\");\r\n        require(!doctorIdExists[_doctorId], \"Doctor ID already exists\");\r\n\r\n        doctors[_doctorAddress] = Doctor({\r\n            name: _name,\r\n            specialization: _specialization,\r\n            email: _email,\r\n            username: _username,\r\n            passwordHash: 0,\r\n            doctorId: _doctorId,\r\n            licenseNumber: _licenseNumber,\r\n            yearsOfExperience: _yearsOfExperience,\r\n            clinicName: _clinicName,\r\n            contactNumber: _contactNumber,\r\n            addressDetails: _addressDetails,\r\n            isRegistered: true\r\n        });\r\n\r\n        usernameExists[_username] = true;\r\n        doctorIdExists[_doctorId] = true;\r\n        usernameToAddress[_username] = _doctorAddress;\r\n\r\n        registeredDoctors.push(_doctorAddress);\r\n\r\n        emit DoctorRegistered(_doctorAddress, _username);\r\n    }\r\n\r\n    // Set availability\r\n    function setAvailability(string memory _date, string[] memory _timeSlots) public {\r\n        require(doctors[msg.sender].isRegistered, \"Only registered doctors can set availability\");\r\n        require(bytes(_date).length > 0, \"Invalid date\");\r\n        require(_timeSlots.length > 0, \"At least one time slot required\");\r\n\r\n        doctorAvailability[msg.sender][_date] = _timeSlots;\r\n        emit AvailabilitySet(msg.sender, _date, _timeSlots);\r\n    }\r\n\r\n    // Get a doctor's availability\r\n    function getAvailability(address _doctorAddress, string memory _date) public view returns (string[] memory) {\r\n        require(doctors[_doctorAddress].isRegistered, \"Doctor not registered\");\r\n        return doctorAvailability[_doctorAddress][_date];\r\n    }\r\n\r\n    function removeTimeSlot(address _doctorAddress, string memory _date, string memory _time) internal {\r\n        require(doctors[_doctorAddress].isRegistered, \"Doctor not registered\");\r\n\r\n        string[] storage timeSlots = doctorAvailability[_doctorAddress][_date];\r\n        bool timeSlotFound = false;\r\n        uint256 index = 0;\r\n\r\n        for (uint i = 0; i < timeSlots.length; i++) {\r\n            if (keccak256(abi.encodePacked(timeSlots[i])) == keccak256(abi.encodePacked(_time))) {\r\n                timeSlotFound = true;\r\n                index = i;\r\n                break;\r\n            }\r\n        }\r\n\r\n        require(timeSlotFound, \"Time slot not found\");\r\n\r\n        // Remove the time slot by shifting elements left\r\n        for (uint j = index; j < timeSlots.length - 1; j++) {\r\n            timeSlots[j] = timeSlots[j + 1];\r\n        }\r\n        timeSlots.pop(); // Remove last element\r\n\r\n        emit TimeSlotRemoved(_doctorAddress, _date, _time);\r\n    }\r\n\r\n}\r\n",
  "sourcePath": "C:\\Users\\Student\\MyNewDApp\\frontend\\healthcaresystem\\contracts\\HealthcareSystem.sol",
  "compiler": {
    "name": "solc",
    "version": "0.8.0+commit.c7dfd78e.Emscripten.clang"
  },
  "schemaVersion": "3.4.16",
  "updatedAt": "2025-04-08T18:35:39.343Z",
  "networkType": "ethereum",
  "devdoc": {
    "kind": "dev",
    "methods": {},
    "version": 1
  },
  "userdoc": {
    "kind": "user",
    "methods": {},
    "version": 1
  }
}