{
  "contractName": "PatientRegistry",
  "abi": [
    {
      "anonymous": false,
      "inputs": [
        {
          "indexed": true,
          "internalType": "address",
          "name": "patientAddress",
          "type": "address"
        },
        {
          "indexed": false,
          "internalType": "string",
          "name": "name",
          "type": "string"
        },
        {
          "indexed": false,
          "internalType": "uint256",
          "name": "age",
          "type": "uint256"
        },
        {
          "indexed": false,
          "internalType": "string",
          "name": "healthcardId",
          "type": "string"
        }
      ],
      "name": "PatientRegistered",
      "type": "event"
    },
    {
      "inputs": [
        {
          "components": [
            {
              "internalType": "string",
              "name": "name",
              "type": "string"
            },
            {
              "internalType": "uint256",
              "name": "age",
              "type": "uint256"
            },
            {
              "internalType": "string",
              "name": "gender",
              "type": "string"
            },
            {
              "internalType": "string",
              "name": "bloodGroup",
              "type": "string"
            },
            {
              "internalType": "string",
              "name": "phone",
              "type": "string"
            },
            {
              "internalType": "string",
              "name": "email",
              "type": "string"
            },
            {
              "internalType": "string",
              "name": "addressInfo",
              "type": "string"
            },
            {
              "internalType": "string",
              "name": "healthcardId",
              "type": "string"
            },
            {
              "internalType": "string",
              "name": "emergencyContactName",
              "type": "string"
            },
            {
              "internalType": "string",
              "name": "emergencyContactPhone",
              "type": "string"
            },
            {
              "internalType": "string",
              "name": "medicalHistoryHash",
              "type": "string"
            },
            {
              "internalType": "bytes32",
              "name": "passwordHash",
              "type": "bytes32"
            },
            {
              "internalType": "bool",
              "name": "isRegistered",
              "type": "bool"
            }
          ],
          "internalType": "struct PatientRegistry.Patient",
          "name": "newPatient",
          "type": "tuple"
        },
        {
          "internalType": "string",
          "name": "newPassword",
          "type": "string"
        },
        {
          "internalType": "string",
          "name": "confirmPassword",
          "type": "string"
        }
      ],
      "name": "registerPatient",
      "outputs": [],
      "stateMutability": "nonpayable",
      "type": "function"
    },
    {
      "inputs": [
        {
          "internalType": "address",
          "name": "_patientAddress",
          "type": "address"
        }
      ],
      "name": "getPatientDetails",
      "outputs": [
        {
          "internalType": "string",
          "name": "",
          "type": "string"
        },
        {
          "internalType": "uint256",
          "name": "",
          "type": "uint256"
        },
        {
          "internalType": "string",
          "name": "",
          "type": "string"
        },
        {
          "internalType": "string",
          "name": "",
          "type": "string"
        },
        {
          "internalType": "string",
          "name": "",
          "type": "string"
        },
        {
          "internalType": "string",
          "name": "",
          "type": "string"
        },
        {
          "internalType": "string",
          "name": "",
          "type": "string"
        },
        {
          "internalType": "string",
          "name": "",
          "type": "string"
        },
        {
          "internalType": "string",
          "name": "",
          "type": "string"
        },
        {
          "internalType": "string",
          "name": "",
          "type": "string"
        },
        {
          "internalType": "string",
          "name": "",
          "type": "string"
        }
      ],
      "stateMutability": "view",
      "type": "function"
    }
  ],
  "bytecode": "0x608060405234801561000f575f80fd5b5061176a8061001d5f395ff3fe608060405234801561000f575f80fd5b5060043610610034575f3560e01c8063808a6dc214610038578063efe2ccc114610054575b5f80fd5b610052600480360381019061004d9190610f97565b61008e565b005b61006e60048036038101906100699190611095565b610447565b6040516100859b9a99989796959493929190611149565b60405180910390f35b5f803373ffffffffffffffffffffffffffffffffffffffff1673ffffffffffffffffffffffffffffffffffffffff1681526020019081526020015f20600c015f9054906101000a900460ff161561011a576040517f08c379a000000000000000000000000000000000000000000000000000000000815260040161011190611282565b60405180910390fd5b60018360e0015160405161012e91906112da565b90815260200160405180910390205f9054906101000a900460ff1615610189576040517f08c379a00000000000000000000000000000000000000000000000000000000081526004016101809061133a565b60405180910390fd5b8060405160200161019a91906112da565b60405160208183030381529060405280519060200120826040516020016101c191906112da565b6040516020818303038152906040528051906020012014610217576040517f08c379a000000000000000000000000000000000000000000000000000000000815260040161020e906113a2565b60405180910390fd5b8160405160200161022891906112da565b6040516020818303038152906040528051906020012083610160018181525050600183610180019015159081151581525050825f803373ffffffffffffffffffffffffffffffffffffffff1673ffffffffffffffffffffffffffffffffffffffff1681526020019081526020015f205f820151815f0190816102aa91906115ba565b506020820151816001015560408201518160020190816102ca91906115ba565b5060608201518160030190816102e091906115ba565b5060808201518160040190816102f691906115ba565b5060a082015181600501908161030c91906115ba565b5060c082015181600601908161032291906115ba565b5060e082015181600701908161033891906115ba565b5061010082015181600801908161034f91906115ba565b5061012082015181600901908161036691906115ba565b5061014082015181600a01908161037d91906115ba565b5061016082015181600b015561018082015181600c015f6101000a81548160ff0219169083151502179055509050506001808460e001516040516103c191906112da565b90815260200160405180910390205f6101000a81548160ff0219169083151502179055503373ffffffffffffffffffffffffffffffffffffffff167f3b1fc31c6c58b3eb9a4dca3db2b0227286b37baa786c288fd06e2fa395e681c8845f015185602001518660e0015160405161043a93929190611689565b60405180910390a2505050565b60605f60608060608060608060608060605f808d73ffffffffffffffffffffffffffffffffffffffff1673ffffffffffffffffffffffffffffffffffffffff1681526020019081526020015f20600c015f9054906101000a900460ff166104e3576040517f08c379a00000000000000000000000000000000000000000000000000000000081526004016104da90611716565b60405180910390fd5b5f805f8e73ffffffffffffffffffffffffffffffffffffffff1673ffffffffffffffffffffffffffffffffffffffff1681526020019081526020015f20604051806101a00160405290815f8201805461053b906113ed565b80601f0160208091040260200160405190810160405280929190818152602001828054610567906113ed565b80156105b25780601f10610589576101008083540402835291602001916105b2565b820191905f5260205f20905b81548152906001019060200180831161059557829003601f168201915b50505050508152602001600182015481526020016002820180546105d5906113ed565b80601f0160208091040260200160405190810160405280929190818152602001828054610601906113ed565b801561064c5780601f106106235761010080835404028352916020019161064c565b820191905f5260205f20905b81548152906001019060200180831161062f57829003601f168201915b50505050508152602001600382018054610665906113ed565b80601f0160208091040260200160405190810160405280929190818152602001828054610691906113ed565b80156106dc5780601f106106b3576101008083540402835291602001916106dc565b820191905f5260205f20905b8154815290600101906020018083116106bf57829003601f168201915b505050505081526020016004820180546106f5906113ed565b80601f0160208091040260200160405190810160405280929190818152602001828054610721906113ed565b801561076c5780601f106107435761010080835404028352916020019161076c565b820191905f5260205f20905b81548152906001019060200180831161074f57829003601f168201915b50505050508152602001600582018054610785906113ed565b80601f01602080910402602001604051908101604052809291908181526020018280546107b1906113ed565b80156107fc5780601f106107d3576101008083540402835291602001916107fc565b820191905f5260205f20905b8154815290600101906020018083116107df57829003601f168201915b50505050508152602001600682018054610815906113ed565b80601f0160208091040260200160405190810160405280929190818152602001828054610841906113ed565b801561088c5780601f106108635761010080835404028352916020019161088c565b820191905f5260205f20905b81548152906001019060200180831161086f57829003601f168201915b505050505081526020016007820180546108a5906113ed565b80601f01602080910402602001604051908101604052809291908181526020018280546108d1906113ed565b801561091c5780601f106108f35761010080835404028352916020019161091c565b820191905f5260205f20905b8154815290600101906020018083116108ff57829003601f168201915b50505050508152602001600882018054610935906113ed565b80601f0160208091040260200160405190810160405280929190818152602001828054610961906113ed565b80156109ac5780601f10610983576101008083540402835291602001916109ac565b820191905f5260205f20905b81548152906001019060200180831161098f57829003601f168201915b505050505081526020016009820180546109c5906113ed565b80601f01602080910402602001604051908101604052809291908181526020018280546109f1906113ed565b8015610a3c5780601f10610a1357610100808354040283529160200191610a3c565b820191905f5260205f20905b815481529060010190602001808311610a1f57829003601f168201915b50505050508152602001600a82018054610a55906113ed565b80601f0160208091040260200160405190810160405280929190818152602001828054610a81906113ed565b8015610acc5780601f10610aa357610100808354040283529160200191610acc565b820191905f5260205f20905b815481529060010190602001808311610aaf57829003601f168201915b50505050508152602001600b8201548152602001600c82015f9054906101000a900460ff1615151515815250509050805f015181602001518260400151836060015184608001518560a001518660c001518760e001518861010001518961012001518a61014001519b509b509b509b509b509b509b509b509b509b509b505091939597999b90929496989a50565b5f604051905090565b5f80fd5b5f80fd5b5f80fd5b5f601f19601f8301169050919050565b7f4e487b71000000000000000000000000000000000000000000000000000000005f52604160045260245ffd5b610bb582610b6f565b810181811067ffffffffffffffff82111715610bd457610bd3610b7f565b5b80604052505050565b5f610be6610b5a565b9050610bf28282610bac565b919050565b5f80fd5b5f80fd5b5f80fd5b5f67ffffffffffffffff821115610c1d57610c1c610b7f565b5b610c2682610b6f565b9050602081019050919050565b828183375f83830152505050565b5f610c53610c4e84610c03565b610bdd565b905082815260208101848484011115610c6f57610c6e610bff565b5b610c7a848285610c33565b509392505050565b5f82601f830112610c9657610c95610bfb565b5b8135610ca6848260208601610c41565b91505092915050565b5f819050919050565b610cc181610caf565b8114610ccb575f80fd5b50565b5f81359050610cdc81610cb8565b92915050565b5f819050919050565b610cf481610ce2565b8114610cfe575f80fd5b50565b5f81359050610d0f81610ceb565b92915050565b5f8115159050919050565b610d2981610d15565b8114610d33575f80fd5b50565b5f81359050610d4481610d20565b92915050565b5f6101a08284031215610d6057610d5f610b6b565b5b610d6b6101a0610bdd565b90505f82013567ffffffffffffffff811115610d8a57610d89610bf7565b5b610d9684828501610c82565b5f830152506020610da984828501610cce565b602083015250604082013567ffffffffffffffff811115610dcd57610dcc610bf7565b5b610dd984828501610c82565b604083015250606082013567ffffffffffffffff811115610dfd57610dfc610bf7565b5b610e0984828501610c82565b606083015250608082013567ffffffffffffffff811115610e2d57610e2c610bf7565b5b610e3984828501610c82565b60808301525060a082013567ffffffffffffffff811115610e5d57610e5c610bf7565b5b610e6984828501610c82565b60a08301525060c082013567ffffffffffffffff811115610e8d57610e8c610bf7565b5b610e9984828501610c82565b60c08301525060e082013567ffffffffffffffff811115610ebd57610ebc610bf7565b5b610ec984828501610c82565b60e08301525061010082013567ffffffffffffffff811115610eee57610eed610bf7565b5b610efa84828501610c82565b6101008301525061012082013567ffffffffffffffff811115610f2057610f1f610bf7565b5b610f2c84828501610c82565b6101208301525061014082013567ffffffffffffffff811115610f5257610f51610bf7565b5b610f5e84828501610c82565b61014083015250610160610f7484828501610d01565b61016083015250610180610f8a84828501610d36565b6101808301525092915050565b5f805f60608486031215610fae57610fad610b63565b5b5f84013567ffffffffffffffff811115610fcb57610fca610b67565b5b610fd786828701610d4a565b935050602084013567ffffffffffffffff811115610ff857610ff7610b67565b5b61100486828701610c82565b925050604084013567ffffffffffffffff81111561102557611024610b67565b5b61103186828701610c82565b9150509250925092565b5f73ffffffffffffffffffffffffffffffffffffffff82169050919050565b5f6110648261103b565b9050919050565b6110748161105a565b811461107e575f80fd5b50565b5f8135905061108f8161106b565b92915050565b5f602082840312156110aa576110a9610b63565b5b5f6110b784828501611081565b91505092915050565b5f81519050919050565b5f82825260208201905092915050565b5f5b838110156110f75780820151818401526020810190506110dc565b5f8484015250505050565b5f61110c826110c0565b61111681856110ca565b93506111268185602086016110da565b61112f81610b6f565b840191505092915050565b61114381610caf565b82525050565b5f610160820190508181035f830152611162818e611102565b9050611171602083018d61113a565b8181036040830152611183818c611102565b90508181036060830152611197818b611102565b905081810360808301526111ab818a611102565b905081810360a08301526111bf8189611102565b905081810360c08301526111d38188611102565b905081810360e08301526111e78187611102565b90508181036101008301526111fc8186611102565b90508181036101208301526112118185611102565b90508181036101408301526112268184611102565b90509c9b505050505050505050505050565b7f50617469656e7420616c726561647920726567697374657265640000000000005f82015250565b5f61126c601a836110ca565b915061127782611238565b602082019050919050565b5f6020820190508181035f83015261129981611260565b9050919050565b5f81905092915050565b5f6112b4826110c0565b6112be81856112a0565b93506112ce8185602086016110da565b80840191505092915050565b5f6112e582846112aa565b915081905092915050565b7f4865616c74686361726420494420616c726561647920696e20757365000000005f82015250565b5f611324601c836110ca565b915061132f826112f0565b602082019050919050565b5f6020820190508181035f83015261135181611318565b9050919050565b7f50617373776f72647320646f206e6f74206d61746368000000000000000000005f82015250565b5f61138c6016836110ca565b915061139782611358565b602082019050919050565b5f6020820190508181035f8301526113b981611380565b9050919050565b7f4e487b71000000000000000000000000000000000000000000000000000000005f52602260045260245ffd5b5f600282049050600182168061140457607f821691505b602082108103611417576114166113c0565b5b50919050565b5f819050815f5260205f209050919050565b5f6020601f8301049050919050565b5f82821b905092915050565b5f600883026114797fffffffffffffffffffffffffffffffffffffffffffffffffffffffffffffffff8261143e565b611483868361143e565b95508019841693508086168417925050509392505050565b5f819050919050565b5f6114be6114b96114b484610caf565b61149b565b610caf565b9050919050565b5f819050919050565b6114d7836114a4565b6114eb6114e3826114c5565b84845461144a565b825550505050565b5f90565b6114ff6114f3565b61150a8184846114ce565b505050565b5b8181101561152d576115225f826114f7565b600181019050611510565b5050565b601f821115611572576115438161141d565b61154c8461142f565b8101602085101561155b578190505b61156f6115678561142f565b83018261150f565b50505b505050565b5f82821c905092915050565b5f6115925f1984600802611577565b1980831691505092915050565b5f6115aa8383611583565b9150826002028217905092915050565b6115c3826110c0565b67ffffffffffffffff8111156115dc576115db610b7f565b5b6115e682546113ed565b6115f1828285611531565b5f60209050601f831160018114611622575f8415611610578287015190505b61161a858261159f565b865550611681565b601f1984166116308661141d565b5f5b8281101561165757848901518255600182019150602085019450602081019050611632565b868310156116745784890151611670601f891682611583565b8355505b6001600288020188555050505b505050505050565b5f6060820190508181035f8301526116a18186611102565b90506116b0602083018561113a565b81810360408301526116c28184611102565b9050949350505050565b7f50617469656e74206e6f7420666f756e640000000000000000000000000000005f82015250565b5f6117006011836110ca565b915061170b826116cc565b602082019050919050565b5f6020820190508181035f83015261172d816116f4565b905091905056fea2646970667358221220c673d8d94e098f1fb7c333d850e074b9ecc7b5c09849877bdb0a54881c6ece6c64736f6c63430008140033",
  "immutableReferences": {},
  "source": "// SPDX-License-Identifier: MIT\r\npragma solidity ^0.8.20;\r\n\r\ncontract PatientRegistry {\r\n    struct Patient {\r\n        string name;\r\n        uint age;\r\n        string gender;\r\n        string bloodGroup;\r\n        string phone;\r\n        string email;\r\n        string addressInfo;\r\n        string healthcardId;\r\n        string emergencyContactName;\r\n        string emergencyContactPhone;\r\n        string medicalHistoryHash;\r\n        bytes32 passwordHash;\r\n        bool isRegistered;\r\n    }\r\n\r\n    mapping(address => Patient) private patients;\r\n    mapping(string => bool) private healthcardUsed; // Ensure unique healthcard IDs\r\n\r\n    event PatientRegistered(address indexed patientAddress, string name, uint age, string healthcardId);\r\n\r\n    //  Using a struct input to avoid \"Stack too deep\" error\r\n    function registerPatient(\r\n        Patient memory newPatient,\r\n        string memory newPassword,\r\n        string memory confirmPassword\r\n    ) public {\r\n        require(!patients[msg.sender].isRegistered, \"Patient already registered\");\r\n        require(!healthcardUsed[newPatient.healthcardId], \"Healthcard ID already in use\");\r\n        require(keccak256(abi.encodePacked(newPassword)) == keccak256(abi.encodePacked(confirmPassword)), \"Passwords do not match\");\r\n\r\n        newPatient.passwordHash = keccak256(abi.encodePacked(newPassword)); // Hash the password\r\n        newPatient.isRegistered = true;\r\n        \r\n        patients[msg.sender] = newPatient;\r\n        healthcardUsed[newPatient.healthcardId] = true; // Mark healthcard ID as used\r\n        \r\n        emit PatientRegistered(msg.sender, newPatient.name, newPatient.age, newPatient.healthcardId);\r\n    }\r\n\r\n    // Function to retrieve patient details (without exposing password)\r\n    function getPatientDetails(address _patientAddress) public view returns (\r\n        string memory, uint, string memory, string memory, string memory, string memory, string memory,\r\n        string memory, string memory, string memory, string memory\r\n    ) {\r\n        require(patients[_patientAddress].isRegistered, \"Patient not found\");\r\n\r\n        Patient memory p = patients[_patientAddress];\r\n        return (\r\n            p.name, p.age, p.gender, p.bloodGroup, p.phone, p.email, p.addressInfo,\r\n            p.healthcardId, p.emergencyContactName, p.emergencyContactPhone, p.medicalHistoryHash\r\n        );\r\n    }\r\n}",
  "sourcePath": "C:\\Madhu\\Project\\patient-registry\\contracts\\PatientRegistry.sol",
  "compiler": {
    "name": "solc",
    "version": "0.8.20+commit.a1b79de6.Emscripten.clang"
  },
  "schemaVersion": "3.4.16",
  "updatedAt": "2025-04-07T03:09:03.941Z",
  "devdoc": {
    "kind": "dev",
    "methods": {},
    "version": 1
  },
  "userdoc": {
    "kind": "user",
    "methods": {},
    "version": 1
  }
}